{
  "_format": "hh-sol-artifact-1",
  "contractName": "Auction",
  "sourceName": "contracts/Auction.sol",
  "abi": [
    {
      "inputs": [
        {
          "internalType": "uint256",
          "name": "_biddingTime",
          "type": "uint256"
        },
        {
          "internalType": "address payable",
          "name": "_beneficiary",
          "type": "address"
        }
      ],
      "stateMutability": "nonpayable",
      "type": "constructor"
    },
    {
      "anonymous": false,
      "inputs": [
        {
          "indexed": false,
          "internalType": "address",
          "name": "winner",
          "type": "address"
        },
        {
          "indexed": false,
          "internalType": "uint256",
          "name": "amount",
          "type": "uint256"
        }
      ],
      "name": "AuctionEnded",
      "type": "event"
    },
    {
      "anonymous": false,
      "inputs": [
        {
          "indexed": false,
          "internalType": "uint256",
          "name": "endTime",
          "type": "uint256"
        }
      ],
      "name": "AuctionStarted",
      "type": "event"
    },
    {
      "anonymous": false,
      "inputs": [
        {
          "indexed": true,
          "internalType": "address",
          "name": "bidder",
          "type": "address"
        },
        {
          "indexed": false,
          "internalType": "uint256",
          "name": "amount",
          "type": "uint256"
        }
      ],
      "name": "BidWithdrawn",
      "type": "event"
    },
    {
      "anonymous": false,
      "inputs": [
        {
          "indexed": true,
          "internalType": "address",
          "name": "bidder",
          "type": "address"
        },
        {
          "indexed": false,
          "internalType": "uint256",
          "name": "amount",
          "type": "uint256"
        }
      ],
      "name": "HighestBidIncreased",
      "type": "event"
    },
    {
      "inputs": [],
      "name": "auctionEndTime",
      "outputs": [
        {
          "internalType": "uint256",
          "name": "",
          "type": "uint256"
        }
      ],
      "stateMutability": "view",
      "type": "function"
    },
    {
      "inputs": [],
      "name": "beneficiary",
      "outputs": [
        {
          "internalType": "address payable",
          "name": "",
          "type": "address"
        }
      ],
      "stateMutability": "view",
      "type": "function"
    },
    {
      "inputs": [],
      "name": "bid",
      "outputs": [],
      "stateMutability": "payable",
      "type": "function"
    },
    {
      "inputs": [],
      "name": "endAuction",
      "outputs": [],
      "stateMutability": "nonpayable",
      "type": "function"
    },
    {
      "inputs": [
        {
          "internalType": "address",
          "name": "bidder",
          "type": "address"
        }
      ],
      "name": "getPendingReturn",
      "outputs": [
        {
          "internalType": "uint256",
          "name": "",
          "type": "uint256"
        }
      ],
      "stateMutability": "view",
      "type": "function"
    },
    {
      "inputs": [],
      "name": "highestBid",
      "outputs": [
        {
          "internalType": "uint256",
          "name": "",
          "type": "uint256"
        }
      ],
      "stateMutability": "view",
      "type": "function"
    },
    {
      "inputs": [],
      "name": "highestBidder",
      "outputs": [
        {
          "internalType": "address",
          "name": "",
          "type": "address"
        }
      ],
      "stateMutability": "view",
      "type": "function"
    },
    {
      "inputs": [],
      "name": "withdraw",
      "outputs": [
        {
          "internalType": "bool",
          "name": "",
          "type": "bool"
        }
      ],
      "stateMutability": "nonpayable",
      "type": "function"
    }
  ],
  "bytecode": "0x60806040523480156200001157600080fd5b5060405162000e1e38038062000e1e833981810160405281019062000037919062000173565b806000806101000a81548173ffffffffffffffffffffffffffffffffffffffff021916908373ffffffffffffffffffffffffffffffffffffffff1602179055508142620000859190620001e9565b6001819055507f1bb96dff6ab5005aff98cdc0cf176bb7d8e0423cb48e02217d35b042cec81e9f600154604051620000be919062000235565b60405180910390a1505062000252565b600080fd5b6000819050919050565b620000e881620000d3565b8114620000f457600080fd5b50565b6000815190506200010881620000dd565b92915050565b600073ffffffffffffffffffffffffffffffffffffffff82169050919050565b60006200013b826200010e565b9050919050565b6200014d816200012e565b81146200015957600080fd5b50565b6000815190506200016d8162000142565b92915050565b600080604083850312156200018d576200018c620000ce565b5b60006200019d85828601620000f7565b9250506020620001b0858286016200015c565b9150509250929050565b7f4e487b7100000000000000000000000000000000000000000000000000000000600052601160045260246000fd5b6000620001f682620000d3565b91506200020383620000d3565b92508282019050808211156200021e576200021d620001ba565b5b92915050565b6200022f81620000d3565b82525050565b60006020820190506200024c600083018462000224565b92915050565b610bbc80620002626000396000f3fe60806040526004361061007b5760003560e01c806391f901571161004e57806391f901571461010b578063c4884dc814610136578063d57bde7914610173578063fe67a54b1461019e5761007b565b80631998aeef1461008057806338af3eed1461008a5780633ccfd60b146100b55780634b449cba146100e0575b600080fd5b6100886101b5565b005b34801561009657600080fd5b5061009f6103ab565b6040516100ac91906107ae565b60405180910390f35b3480156100c157600080fd5b506100ca6103cf565b6040516100d791906107e4565b60405180910390f35b3480156100ec57600080fd5b506100f561057a565b6040516101029190610818565b60405180910390f35b34801561011757600080fd5b50610120610580565b60405161012d9190610854565b60405180910390f35b34801561014257600080fd5b5061015d600480360381019061015891906108a0565b6105a6565b60405161016a9190610818565b60405180910390f35b34801561017f57600080fd5b506101886105ef565b6040516101959190610818565b60405180910390f35b3480156101aa57600080fd5b506101b36105f5565b005b6001544211156101fa576040517f08c379a00000000000000000000000000000000000000000000000000000000081526004016101f19061092a565b60405180910390fd5b600560009054906101000a900460ff161561024a576040517f08c379a000000000000000000000000000000000000000000000000000000000815260040161024190610996565b60405180910390fd5b600354341161028e576040517f08c379a000000000000000000000000000000000000000000000000000000000815260040161028590610a02565b60405180910390fd5b6000600354146103135760035460046000600260009054906101000a900473ffffffffffffffffffffffffffffffffffffffff1673ffffffffffffffffffffffffffffffffffffffff1673ffffffffffffffffffffffffffffffffffffffff168152602001908152602001600020600082825461030b9190610a51565b925050819055505b33600260006101000a81548173ffffffffffffffffffffffffffffffffffffffff021916908373ffffffffffffffffffffffffffffffffffffffff160217905550346003819055503373ffffffffffffffffffffffffffffffffffffffff167ff4757a49b326036464bec6fe419a4ae38c8a02ce3e68bf0809674f6aab8ad300346040516103a19190610818565b60405180910390a2565b60008054906101000a900473ffffffffffffffffffffffffffffffffffffffff1681565b600080600460003373ffffffffffffffffffffffffffffffffffffffff1673ffffffffffffffffffffffffffffffffffffffff16815260200190815260200160002054905060008111610457576040517f08c379a000000000000000000000000000000000000000000000000000000000815260040161044e90610ad1565b60405180910390fd5b6000600460003373ffffffffffffffffffffffffffffffffffffffff1673ffffffffffffffffffffffffffffffffffffffff168152602001908152602001600020819055503373ffffffffffffffffffffffffffffffffffffffff166108fc829081150290604051600060405180830381858888f193505050506105235780600460003373ffffffffffffffffffffffffffffffffffffffff1673ffffffffffffffffffffffffffffffffffffffff168152602001908152602001600020819055506000915050610577565b3373ffffffffffffffffffffffffffffffffffffffff167f03f0427e8bcfdf5f69217150cf160ebe2dac5fa607336fd7643bfd61a9019080826040516105699190610818565b60405180910390a260019150505b90565b60015481565b600260009054906101000a900473ffffffffffffffffffffffffffffffffffffffff1681565b6000600460008373ffffffffffffffffffffffffffffffffffffffff1673ffffffffffffffffffffffffffffffffffffffff168152602001908152602001600020549050919050565b60035481565b60015442101561063a576040517f08c379a000000000000000000000000000000000000000000000000000000000815260040161063190610b3d565b60405180910390fd5b600560009054906101000a900460ff161561068a576040517f08c379a000000000000000000000000000000000000000000000000000000000815260040161068190610996565b60405180910390fd5b6001600560006101000a81548160ff0219169083151502179055507fdaec4582d5d9595688c8c98545fdd1c696d41c6aeaeb636737e84ed2f5c00eda600260009054906101000a900473ffffffffffffffffffffffffffffffffffffffff166003546040516106fa929190610b5d565b60405180910390a160008054906101000a900473ffffffffffffffffffffffffffffffffffffffff1673ffffffffffffffffffffffffffffffffffffffff166108fc6003549081150290604051600060405180830381858888f1935050505015801561076a573d6000803e3d6000fd5b50565b600073ffffffffffffffffffffffffffffffffffffffff82169050919050565b60006107988261076d565b9050919050565b6107a88161078d565b82525050565b60006020820190506107c3600083018461079f565b92915050565b60008115159050919050565b6107de816107c9565b82525050565b60006020820190506107f960008301846107d5565b92915050565b6000819050919050565b610812816107ff565b82525050565b600060208201905061082d6000830184610809565b92915050565b600061083e8261076d565b9050919050565b61084e81610833565b82525050565b60006020820190506108696000830184610845565b92915050565b600080fd5b61087d81610833565b811461088857600080fd5b50565b60008135905061089a81610874565b92915050565b6000602082840312156108b6576108b561086f565b5b60006108c48482850161088b565b91505092915050565b600082825260208201905092915050565b7f41756374696f6e20616c726561647920656e6465642e00000000000000000000600082015250565b60006109146016836108cd565b915061091f826108de565b602082019050919050565b6000602082019050818103600083015261094381610907565b9050919050565b7f41756374696f6e2068617320616c726561647920656e6465642e000000000000600082015250565b6000610980601a836108cd565b915061098b8261094a565b602082019050919050565b600060208201905081810360008301526109af81610973565b9050919050565b7f546865726520616c7265616479206973206120686967686572206269642e0000600082015250565b60006109ec601e836108cd565b91506109f7826109b6565b602082019050919050565b60006020820190508181036000830152610a1b816109df565b9050919050565b7f4e487b7100000000000000000000000000000000000000000000000000000000600052601160045260246000fd5b6000610a5c826107ff565b9150610a67836107ff565b9250828201905080821115610a7f57610a7e610a22565b5b92915050565b7f4e6f2066756e647320746f2077697468647261772e0000000000000000000000600082015250565b6000610abb6015836108cd565b9150610ac682610a85565b602082019050919050565b60006020820190508181036000830152610aea81610aae565b9050919050565b7f41756374696f6e206e6f742079657420656e6465642e00000000000000000000600082015250565b6000610b276016836108cd565b9150610b3282610af1565b602082019050919050565b60006020820190508181036000830152610b5681610b1a565b9050919050565b6000604082019050610b726000830185610845565b610b7f6020830184610809565b939250505056fea2646970667358221220b3af22d2b6b30e80538078d9cf085de022d43f936c919c563e9fdbb6b8a7d62e64736f6c63430008160033",
  "linkReferences": {},
  "deployedLinkReferences": {}
}